{
    "contractName": "OmniCoinArbitration",
    "abi": [
        {
            "inputs": [],
            "stateMutability": "nonpayable",
            "type": "constructor"
        },
        {
            "inputs": [],
            "name": "InvalidInitialization",
            "type": "error"
        },
        {
            "inputs": [],
            "name": "NotInitializing",
            "type": "error"
        },
        {
            "inputs": [
                {
                    "internalType": "address",
                    "name": "owner",
                    "type": "address"
                }
            ],
            "name": "OwnableInvalidOwner",
            "type": "error"
        },
        {
            "inputs": [
                {
                    "internalType": "address",
                    "name": "account",
                    "type": "address"
                }
            ],
            "name": "OwnableUnauthorizedAccount",
            "type": "error"
        },
        {
            "inputs": [],
            "name": "ReentrancyGuardReentrantCall",
            "type": "error"
        },
        {
            "anonymous": false,
            "inputs": [
                {
                    "indexed": true,
                    "internalType": "bytes32",
                    "name": "escrowId",
                    "type": "bytes32"
                },
                {
                    "indexed": false,
                    "internalType": "bytes32",
                    "name": "feeDistributionHash",
                    "type": "bytes32"
                }
            ],
            "name": "ArbitrationFeeDistributed",
            "type": "event"
        },
        {
            "anonymous": false,
            "inputs": [
                {
                    "indexed": true,
                    "internalType": "address",
                    "name": "arbitrator",
                    "type": "address"
                },
                {
                    "indexed": false,
                    "internalType": "uint256",
                    "name": "specializations",
                    "type": "uint256"
                },
                {
                    "indexed": false,
                    "internalType": "uint256",
                    "name": "stakingAmount",
                    "type": "uint256"
                }
            ],
            "name": "ArbitratorRegistered",
            "type": "event"
        },
        {
            "anonymous": false,
            "inputs": [
                {
                    "indexed": true,
                    "internalType": "address",
                    "name": "arbitrator",
                    "type": "address"
                },
                {
                    "indexed": false,
                    "internalType": "string",
                    "name": "reason",
                    "type": "string"
                }
            ],
            "name": "ArbitratorRemoved",
            "type": "event"
        },
        {
            "anonymous": false,
            "inputs": [
                {
                    "indexed": true,
                    "internalType": "address",
                    "name": "arbitrator",
                    "type": "address"
                },
                {
                    "indexed": false,
                    "internalType": "uint256",
                    "name": "newStakingAmount",
                    "type": "uint256"
                }
            ],
            "name": "ArbitratorStakeUpdated",
            "type": "event"
        },
        {
            "anonymous": false,
            "inputs": [
                {
                    "indexed": true,
                    "internalType": "bytes32",
                    "name": "escrowId",
                    "type": "bytes32"
                },
                {
                    "indexed": true,
                    "internalType": "address",
                    "name": "primaryArbitrator",
                    "type": "address"
                },
                {
                    "indexed": false,
                    "internalType": "uint256",
                    "name": "disputeType",
                    "type": "uint256"
                },
                {
                    "indexed": false,
                    "internalType": "bytes32",
                    "name": "evidenceHash",
                    "type": "bytes32"
                }
            ],
            "name": "ConfidentialDisputeCreated",
            "type": "event"
        },
        {
            "anonymous": false,
            "inputs": [
                {
                    "indexed": true,
                    "internalType": "bytes32",
                    "name": "escrowId",
                    "type": "bytes32"
                },
                {
                    "indexed": false,
                    "internalType": "bytes32",
                    "name": "resolutionHash",
                    "type": "bytes32"
                },
                {
                    "indexed": false,
                    "internalType": "uint256",
                    "name": "timestamp",
                    "type": "uint256"
                },
                {
                    "indexed": false,
                    "internalType": "bytes32",
                    "name": "payoutHash",
                    "type": "bytes32"
                }
            ],
            "name": "ConfidentialDisputeResolved",
            "type": "event"
        },
        {
            "anonymous": false,
            "inputs": [
                {
                    "indexed": true,
                    "internalType": "bytes32",
                    "name": "escrowId",
                    "type": "bytes32"
                },
                {
                    "indexed": false,
                    "internalType": "address[]",
                    "name": "panelArbitrators",
                    "type": "address[]"
                }
            ],
            "name": "DisputePanelFormed",
            "type": "event"
        },
        {
            "anonymous": false,
            "inputs": [
                {
                    "indexed": false,
                    "internalType": "uint64",
                    "name": "version",
                    "type": "uint64"
                }
            ],
            "name": "Initialized",
            "type": "event"
        },
        {
            "anonymous": false,
            "inputs": [
                {
                    "indexed": true,
                    "internalType": "address",
                    "name": "previousOwner",
                    "type": "address"
                },
                {
                    "indexed": true,
                    "internalType": "address",
                    "name": "newOwner",
                    "type": "address"
                }
            ],
            "name": "OwnershipTransferred",
            "type": "event"
        },
        {
            "anonymous": false,
            "inputs": [
                {
                    "indexed": true,
                    "internalType": "address",
                    "name": "arbitrator",
                    "type": "address"
                },
                {
                    "indexed": false,
                    "internalType": "bytes32",
                    "name": "earningsHash",
                    "type": "bytes32"
                }
            ],
            "name": "PrivateEarningsUpdated",
            "type": "event"
        },
        {
            "anonymous": false,
            "inputs": [
                {
                    "indexed": true,
                    "internalType": "bytes32",
                    "name": "escrowId",
                    "type": "bytes32"
                },
                {
                    "indexed": true,
                    "internalType": "address",
                    "name": "rater",
                    "type": "address"
                },
                {
                    "indexed": false,
                    "internalType": "uint256",
                    "name": "rating",
                    "type": "uint256"
                }
            ],
            "name": "RatingSubmitted",
            "type": "event"
        },
        {
            "anonymous": false,
            "inputs": [
                {
                    "indexed": true,
                    "internalType": "address",
                    "name": "arbitrator",
                    "type": "address"
                },
                {
                    "indexed": false,
                    "internalType": "uint256",
                    "name": "newReputation",
                    "type": "uint256"
                }
            ],
            "name": "ReputationUpdated",
            "type": "event"
        },
        {
            "inputs": [],
            "name": "ARBITRATION_FEE_RATE",
            "outputs": [
                {
                    "internalType": "uint256",
                    "name": "",
                    "type": "uint256"
                }
            ],
            "stateMutability": "view",
            "type": "function"
        },
        {
            "inputs": [],
            "name": "ARBITRATOR_FEE_SHARE",
            "outputs": [
                {
                    "internalType": "uint256",
                    "name": "",
                    "type": "uint256"
                }
            ],
            "stateMutability": "view",
            "type": "function"
        },
        {
            "inputs": [],
            "name": "COMPLEX_DISPUTE_THRESHOLD",
            "outputs": [
                {
                    "internalType": "uint256",
                    "name": "",
                    "type": "uint256"
                }
            ],
            "stateMutability": "view",
            "type": "function"
        },
        {
            "inputs": [],
            "name": "PANEL_SIZE",
            "outputs": [
                {
                    "internalType": "uint256",
                    "name": "",
                    "type": "uint256"
                }
            ],
            "stateMutability": "view",
            "type": "function"
        },
        {
            "inputs": [],
            "name": "PRIVACY_MULTIPLIER",
            "outputs": [
                {
                    "internalType": "uint256",
                    "name": "",
                    "type": "uint256"
                }
            ],
            "stateMutability": "view",
            "type": "function"
        },
        {
            "inputs": [],
            "name": "RESOLUTION_PERIOD",
            "outputs": [
                {
                    "internalType": "uint256",
                    "name": "",
                    "type": "uint256"
                }
            ],
            "stateMutability": "view",
            "type": "function"
        },
        {
            "inputs": [],
            "name": "SIMPLE_DISPUTE_THRESHOLD",
            "outputs": [
                {
                    "internalType": "uint256",
                    "name": "",
                    "type": "uint256"
                }
            ],
            "stateMutability": "view",
            "type": "function"
        },
        {
            "inputs": [],
            "name": "SPEC_DIGITAL_GOODS",
            "outputs": [
                {
                    "internalType": "uint256",
                    "name": "",
                    "type": "uint256"
                }
            ],
            "stateMutability": "view",
            "type": "function"
        },
        {
            "inputs": [],
            "name": "SPEC_HIGH_VALUE",
            "outputs": [
                {
                    "internalType": "uint256",
                    "name": "",
                    "type": "uint256"
                }
            ],
            "stateMutability": "view",
            "type": "function"
        },
        {
            "inputs": [],
            "name": "SPEC_INTERNATIONAL",
            "outputs": [
                {
                    "internalType": "uint256",
                    "name": "",
                    "type": "uint256"
                }
            ],
            "stateMutability": "view",
            "type": "function"
        },
        {
            "inputs": [],
            "name": "SPEC_PHYSICAL_GOODS",
            "outputs": [
                {
                    "internalType": "uint256",
                    "name": "",
                    "type": "uint256"
                }
            ],
            "stateMutability": "view",
            "type": "function"
        },
        {
            "inputs": [],
            "name": "SPEC_SERVICES",
            "outputs": [
                {
                    "internalType": "uint256",
                    "name": "",
                    "type": "uint256"
                }
            ],
            "stateMutability": "view",
            "type": "function"
        },
        {
            "inputs": [],
            "name": "SPEC_TECHNICAL",
            "outputs": [
                {
                    "internalType": "uint256",
                    "name": "",
                    "type": "uint256"
                }
            ],
            "stateMutability": "view",
            "type": "function"
        },
        {
            "inputs": [],
            "name": "TREASURY_FEE_SHARE",
            "outputs": [
                {
                    "internalType": "uint256",
                    "name": "",
                    "type": "uint256"
                }
            ],
            "stateMutability": "view",
            "type": "function"
        },
        {
            "inputs": [],
            "name": "VALIDATOR_FEE_SHARE",
            "outputs": [
                {
                    "internalType": "uint256",
                    "name": "",
                    "type": "uint256"
                }
            ],
            "stateMutability": "view",
            "type": "function"
        },
        {
            "inputs": [
                {
                    "internalType": "address",
                    "name": "",
                    "type": "address"
                },
                {
                    "internalType": "uint256",
                    "name": "",
                    "type": "uint256"
                }
            ],
            "name": "arbitratorDisputes",
            "outputs": [
                {
                    "internalType": "bytes32",
                    "name": "",
                    "type": "bytes32"
                }
            ],
            "stateMutability": "view",
            "type": "function"
        },
        {
            "inputs": [
                {
                    "internalType": "address",
                    "name": "",
                    "type": "address"
                }
            ],
            "name": "arbitrators",
            "outputs": [
                {
                    "internalType": "address",
                    "name": "account",
                    "type": "address"
                },
                {
                    "internalType": "uint256",
                    "name": "reputation",
                    "type": "uint256"
                },
                {
                    "internalType": "uint256",
                    "name": "participationIndex",
                    "type": "uint256"
                },
                {
                    "internalType": "uint256",
                    "name": "totalCases",
                    "type": "uint256"
                },
                {
                    "internalType": "uint256",
                    "name": "successfulCases",
                    "type": "uint256"
                },
                {
                    "internalType": "uint256",
                    "name": "stakingAmount",
                    "type": "uint256"
                },
                {
                    "internalType": "bool",
                    "name": "isActive",
                    "type": "bool"
                },
                {
                    "internalType": "uint256",
                    "name": "lastActiveTimestamp",
                    "type": "uint256"
                },
                {
                    "internalType": "ctUint64",
                    "name": "privateEarnings",
                    "type": "uint256"
                },
                {
                    "internalType": "uint256",
                    "name": "specializationMask",
                    "type": "uint256"
                }
            ],
            "stateMutability": "view",
            "type": "function"
        },
        {
            "inputs": [],
            "name": "claimArbitratorEarnings",
            "outputs": [],
            "stateMutability": "nonpayable",
            "type": "function"
        },
        {
            "inputs": [],
            "name": "config",
            "outputs": [
                {
                    "internalType": "contract OmniCoinConfig",
                    "name": "",
                    "type": "address"
                }
            ],
            "stateMutability": "view",
            "type": "function"
        },
        {
            "inputs": [
                {
                    "internalType": "bytes32",
                    "name": "_escrowId",
                    "type": "bytes32"
                },
                {
                    "internalType": "uint256",
                    "name": "_disputedAmount",
                    "type": "uint256"
                },
                {
                    "internalType": "uint256",
                    "name": "_buyerClaim",
                    "type": "uint256"
                },
                {
                    "internalType": "uint256",
                    "name": "_sellerClaim",
                    "type": "uint256"
                },
                {
                    "internalType": "bytes32",
                    "name": "_evidenceHash",
                    "type": "bytes32"
                }
            ],
            "name": "createDispute",
            "outputs": [],
            "stateMutability": "nonpayable",
            "type": "function"
        },
        {
            "inputs": [
                {
                    "internalType": "bytes32",
                    "name": "_escrowId",
                    "type": "bytes32"
                },
                {
                    "components": [
                        {
                            "internalType": "ctUint64",
                            "name": "ciphertext",
                            "type": "uint256"
                        },
                        {
                            "internalType": "bytes",
                            "name": "signature",
                            "type": "bytes"
                        }
                    ],
                    "internalType": "struct itUint64",
                    "name": "_disputedAmount",
                    "type": "tuple"
                },
                {
                    "components": [
                        {
                            "internalType": "ctUint64",
                            "name": "ciphertext",
                            "type": "uint256"
                        },
                        {
                            "internalType": "bytes",
                            "name": "signature",
                            "type": "bytes"
                        }
                    ],
                    "internalType": "struct itUint64",
                    "name": "_buyerClaim",
                    "type": "tuple"
                },
                {
                    "components": [
                        {
                            "internalType": "ctUint64",
                            "name": "ciphertext",
                            "type": "uint256"
                        },
                        {
                            "internalType": "bytes",
                            "name": "signature",
                            "type": "bytes"
                        }
                    ],
                    "internalType": "struct itUint64",
                    "name": "_sellerClaim",
                    "type": "tuple"
                },
                {
                    "internalType": "bytes32",
                    "name": "_evidenceHash",
                    "type": "bytes32"
                },
                {
                    "internalType": "bool",
                    "name": "usePrivacy",
                    "type": "bool"
                }
            ],
            "name": "createDisputeWithPrivacy",
            "outputs": [],
            "stateMutability": "nonpayable",
            "type": "function"
        },
        {
            "inputs": [],
            "name": "disputeTimeout",
            "outputs": [
                {
                    "internalType": "uint256",
                    "name": "",
                    "type": "uint256"
                }
            ],
            "stateMutability": "view",
            "type": "function"
        },
        {
            "inputs": [
                {
                    "internalType": "address",
                    "name": "_arbitrator",
                    "type": "address"
                }
            ],
            "name": "getArbitratorDisputes",
            "outputs": [
                {
                    "internalType": "bytes32[]",
                    "name": "",
                    "type": "bytes32[]"
                }
            ],
            "stateMutability": "view",
            "type": "function"
        },
        {
            "inputs": [
                {
                    "internalType": "address",
                    "name": "_arbitrator",
                    "type": "address"
                }
            ],
            "name": "getArbitratorInfo",
            "outputs": [
                {
                    "internalType": "uint256",
                    "name": "reputation",
                    "type": "uint256"
                },
                {
                    "internalType": "uint256",
                    "name": "participationIndex",
                    "type": "uint256"
                },
                {
                    "internalType": "uint256",
                    "name": "totalCases",
                    "type": "uint256"
                },
                {
                    "internalType": "uint256",
                    "name": "successfulCases",
                    "type": "uint256"
                },
                {
                    "internalType": "uint256",
                    "name": "stakingAmount",
                    "type": "uint256"
                },
                {
                    "internalType": "bool",
                    "name": "isActive",
                    "type": "bool"
                },
                {
                    "internalType": "uint256",
                    "name": "lastActiveTimestamp",
                    "type": "uint256"
                },
                {
                    "internalType": "uint256",
                    "name": "specializationMask",
                    "type": "uint256"
                }
            ],
            "stateMutability": "view",
            "type": "function"
        },
        {
            "inputs": [
                {
                    "internalType": "address",
                    "name": "_arbitrator",
                    "type": "address"
                }
            ],
            "name": "getArbitratorPrivateEarnings",
            "outputs": [
                {
                    "internalType": "ctUint64",
                    "name": "",
                    "type": "uint256"
                }
            ],
            "stateMutability": "view",
            "type": "function"
        },
        {
            "inputs": [
                {
                    "internalType": "bytes32",
                    "name": "_escrowId",
                    "type": "bytes32"
                }
            ],
            "name": "getDisputePrivateAmounts",
            "outputs": [
                {
                    "internalType": "ctUint64",
                    "name": "disputedAmount",
                    "type": "uint256"
                },
                {
                    "internalType": "ctUint64",
                    "name": "escrowBalance",
                    "type": "uint256"
                },
                {
                    "internalType": "ctUint64",
                    "name": "buyerClaim",
                    "type": "uint256"
                },
                {
                    "internalType": "ctUint64",
                    "name": "sellerClaim",
                    "type": "uint256"
                }
            ],
            "stateMutability": "view",
            "type": "function"
        },
        {
            "inputs": [
                {
                    "internalType": "bytes32",
                    "name": "_escrowId",
                    "type": "bytes32"
                }
            ],
            "name": "getDisputePublicInfo",
            "outputs": [
                {
                    "internalType": "address",
                    "name": "primaryArbitrator",
                    "type": "address"
                },
                {
                    "internalType": "address[]",
                    "name": "panelArbitrators",
                    "type": "address[]"
                },
                {
                    "internalType": "uint256",
                    "name": "timestamp",
                    "type": "uint256"
                },
                {
                    "internalType": "uint256",
                    "name": "disputeType",
                    "type": "uint256"
                },
                {
                    "internalType": "bytes32",
                    "name": "evidenceHash",
                    "type": "bytes32"
                },
                {
                    "internalType": "bytes32",
                    "name": "resolutionHash",
                    "type": "bytes32"
                },
                {
                    "internalType": "uint256",
                    "name": "deadlineTimestamp",
                    "type": "uint256"
                },
                {
                    "internalType": "uint256",
                    "name": "buyerRating",
                    "type": "uint256"
                },
                {
                    "internalType": "uint256",
                    "name": "sellerRating",
                    "type": "uint256"
                },
                {
                    "internalType": "uint256",
                    "name": "arbitratorRating",
                    "type": "uint256"
                }
            ],
            "stateMutability": "view",
            "type": "function"
        },
        {
            "inputs": [
                {
                    "internalType": "address",
                    "name": "_user",
                    "type": "address"
                }
            ],
            "name": "getUserDisputes",
            "outputs": [
                {
                    "internalType": "bytes32[]",
                    "name": "",
                    "type": "bytes32[]"
                }
            ],
            "stateMutability": "view",
            "type": "function"
        },
        {
            "inputs": [],
            "name": "getVersion",
            "outputs": [
                {
                    "internalType": "string",
                    "name": "",
                    "type": "string"
                }
            ],
            "stateMutability": "pure",
            "type": "function"
        },
        {
            "inputs": [
                {
                    "internalType": "uint256",
                    "name": "_additionalStake",
                    "type": "uint256"
                }
            ],
            "name": "increaseArbitratorStake",
            "outputs": [],
            "stateMutability": "nonpayable",
            "type": "function"
        },
        {
            "inputs": [
                {
                    "internalType": "address",
                    "name": "_omniCoin",
                    "type": "address"
                },
                {
                    "internalType": "address",
                    "name": "_omniCoinAccount",
                    "type": "address"
                },
                {
                    "internalType": "address",
                    "name": "_omniCoinEscrow",
                    "type": "address"
                },
                {
                    "internalType": "address",
                    "name": "_config",
                    "type": "address"
                },
                {
                    "internalType": "uint256",
                    "name": "_minReputation",
                    "type": "uint256"
                },
                {
                    "internalType": "uint256",
                    "name": "_minParticipationIndex",
                    "type": "uint256"
                },
                {
                    "internalType": "uint256",
                    "name": "_minStakingAmount",
                    "type": "uint256"
                },
                {
                    "internalType": "uint256",
                    "name": "_maxActiveDisputes",
                    "type": "uint256"
                },
                {
                    "internalType": "uint256",
                    "name": "_disputeTimeout",
                    "type": "uint256"
                },
                {
                    "internalType": "uint256",
                    "name": "_ratingWeight",
                    "type": "uint256"
                }
            ],
            "name": "initialize",
            "outputs": [],
            "stateMutability": "nonpayable",
            "type": "function"
        },
        {
            "inputs": [
                {
                    "internalType": "bytes32",
                    "name": "_escrowId",
                    "type": "bytes32"
                }
            ],
            "name": "isDisputeResolved",
            "outputs": [
                {
                    "internalType": "bool",
                    "name": "",
                    "type": "bool"
                }
            ],
            "stateMutability": "nonpayable",
            "type": "function"
        },
        {
            "inputs": [],
            "name": "isMpcAvailable",
            "outputs": [
                {
                    "internalType": "bool",
                    "name": "",
                    "type": "bool"
                }
            ],
            "stateMutability": "view",
            "type": "function"
        },
        {
            "inputs": [],
            "name": "maxActiveDisputes",
            "outputs": [
                {
                    "internalType": "uint256",
                    "name": "",
                    "type": "uint256"
                }
            ],
            "stateMutability": "view",
            "type": "function"
        },
        {
            "inputs": [],
            "name": "minParticipationIndex",
            "outputs": [
                {
                    "internalType": "uint256",
                    "name": "",
                    "type": "uint256"
                }
            ],
            "stateMutability": "view",
            "type": "function"
        },
        {
            "inputs": [],
            "name": "minReputation",
            "outputs": [
                {
                    "internalType": "uint256",
                    "name": "",
                    "type": "uint256"
                }
            ],
            "stateMutability": "view",
            "type": "function"
        },
        {
            "inputs": [],
            "name": "minStakingAmount",
            "outputs": [
                {
                    "internalType": "uint256",
                    "name": "",
                    "type": "uint256"
                }
            ],
            "stateMutability": "view",
            "type": "function"
        },
        {
            "inputs": [],
            "name": "omniCoin",
            "outputs": [
                {
                    "internalType": "contract OmniCoinCore",
                    "name": "",
                    "type": "address"
                }
            ],
            "stateMutability": "view",
            "type": "function"
        },
        {
            "inputs": [],
            "name": "omniCoinAccount",
            "outputs": [
                {
                    "internalType": "contract OmniCoinAccount",
                    "name": "",
                    "type": "address"
                }
            ],
            "stateMutability": "view",
            "type": "function"
        },
        {
            "inputs": [],
            "name": "omniCoinEscrow",
            "outputs": [
                {
                    "internalType": "contract OmniCoinEscrow",
                    "name": "",
                    "type": "address"
                }
            ],
            "stateMutability": "view",
            "type": "function"
        },
        {
            "inputs": [],
            "name": "owner",
            "outputs": [
                {
                    "internalType": "address",
                    "name": "",
                    "type": "address"
                }
            ],
            "stateMutability": "view",
            "type": "function"
        },
        {
            "inputs": [],
            "name": "privacyFeeManager",
            "outputs": [
                {
                    "internalType": "address",
                    "name": "",
                    "type": "address"
                }
            ],
            "stateMutability": "view",
            "type": "function"
        },
        {
            "inputs": [],
            "name": "ratingWeight",
            "outputs": [
                {
                    "internalType": "uint256",
                    "name": "",
                    "type": "uint256"
                }
            ],
            "stateMutability": "view",
            "type": "function"
        },
        {
            "inputs": [
                {
                    "internalType": "uint256",
                    "name": "_stakingAmount",
                    "type": "uint256"
                },
                {
                    "internalType": "uint256",
                    "name": "_specializations",
                    "type": "uint256"
                }
            ],
            "name": "registerArbitrator",
            "outputs": [],
            "stateMutability": "nonpayable",
            "type": "function"
        },
        {
            "inputs": [],
            "name": "renounceOwnership",
            "outputs": [],
            "stateMutability": "nonpayable",
            "type": "function"
        },
        {
            "inputs": [
                {
                    "internalType": "bytes32",
                    "name": "_escrowId",
                    "type": "bytes32"
                },
                {
                    "internalType": "uint256",
                    "name": "_buyerPayout",
                    "type": "uint256"
                },
                {
                    "internalType": "uint256",
                    "name": "_sellerPayout",
                    "type": "uint256"
                },
                {
                    "internalType": "bytes32",
                    "name": "_resolutionHash",
                    "type": "bytes32"
                }
            ],
            "name": "resolveDispute",
            "outputs": [],
            "stateMutability": "nonpayable",
            "type": "function"
        },
        {
            "inputs": [
                {
                    "internalType": "bytes32",
                    "name": "_escrowId",
                    "type": "bytes32"
                },
                {
                    "components": [
                        {
                            "internalType": "ctUint64",
                            "name": "ciphertext",
                            "type": "uint256"
                        },
                        {
                            "internalType": "bytes",
                            "name": "signature",
                            "type": "bytes"
                        }
                    ],
                    "internalType": "struct itUint64",
                    "name": "_buyerPayout",
                    "type": "tuple"
                },
                {
                    "components": [
                        {
                            "internalType": "ctUint64",
                            "name": "ciphertext",
                            "type": "uint256"
                        },
                        {
                            "internalType": "bytes",
                            "name": "signature",
                            "type": "bytes"
                        }
                    ],
                    "internalType": "struct itUint64",
                    "name": "_sellerPayout",
                    "type": "tuple"
                },
                {
                    "internalType": "bytes32",
                    "name": "_resolutionHash",
                    "type": "bytes32"
                },
                {
                    "internalType": "bool",
                    "name": "usePrivacy",
                    "type": "bool"
                }
            ],
            "name": "resolveDisputeWithPrivacy",
            "outputs": [],
            "stateMutability": "nonpayable",
            "type": "function"
        },
        {
            "inputs": [
                {
                    "internalType": "bool",
                    "name": "_available",
                    "type": "bool"
                }
            ],
            "name": "setMpcAvailability",
            "outputs": [],
            "stateMutability": "nonpayable",
            "type": "function"
        },
        {
            "inputs": [
                {
                    "internalType": "address",
                    "name": "_privacyFeeManager",
                    "type": "address"
                }
            ],
            "name": "setPrivacyFeeManager",
            "outputs": [],
            "stateMutability": "nonpayable",
            "type": "function"
        },
        {
            "inputs": [
                {
                    "internalType": "bytes32",
                    "name": "_escrowId",
                    "type": "bytes32"
                },
                {
                    "internalType": "uint256",
                    "name": "_rating",
                    "type": "uint256"
                }
            ],
            "name": "submitRating",
            "outputs": [],
            "stateMutability": "nonpayable",
            "type": "function"
        },
        {
            "inputs": [
                {
                    "internalType": "address",
                    "name": "newOwner",
                    "type": "address"
                }
            ],
            "name": "transferOwnership",
            "outputs": [],
            "stateMutability": "nonpayable",
            "type": "function"
        },
        {
            "inputs": [
                {
                    "internalType": "address",
                    "name": "",
                    "type": "address"
                },
                {
                    "internalType": "uint256",
                    "name": "",
                    "type": "uint256"
                }
            ],
            "name": "userDisputes",
            "outputs": [
                {
                    "internalType": "bytes32",
                    "name": "",
                    "type": "bytes32"
                }
            ],
            "stateMutability": "view",
            "type": "function"
        }
    ],
    "bytecode": "6080806040523460aa575f5160206142d35f395f51905f525460ff8160401c16609b576002600160401b03196001600160401b038216016049575b60405161422490816100af8239f35b6001600160401b0319166001600160401b039081175f5160206142d35f395f51905f525581527fc7f505b2f371ae2175ee4913f4499e1f2633a7b5936321eed1cdaeb6115181d290602090a15f80603a565b63f92ee8a960e01b5f5260045ffd5b5f80fdfe6080806040526004361015610012575f80fd5b5f3560e01c90816304a8dd7414612446575080630d8e6e2c146123c15780630f6aaff714612217578063124abd1f146121fc5780631e9a2680146121d457806323c0d472146121ac57806325c065b11461218f5780632c1cfb18146120275780632e43dd0214611dab5780633172262c14611d395780633c92996e14611d165780633c95012d1461053c5780633d08fe2d14611cde5780633dc0415914611c955780633eac678814611c6d5780633f77905614611c535780634592e0071461182f57806345d9647b146118035780634b1f78121461128a57806350f905941461126d57806351d0ea37146111c557806353dd2687146111aa5780635cfbb51c1461118f57806365c8a6871461116b5780636616433e14611150578063715018a6146110e957806379502c55146110c157806379615381146110a65780637dbc1e8e14610ff55780637e03649f14610fda578063874acf3114610fbd5780638b37f29214610c2f5780638da5cb5b14610bfb5780639799988c14610be057806399056c3c14610b54578063a405240e14610aac578063a46fb42514610a54578063b4edb46f14610a37578063bfb0a55b146109b5578063c02b27b414610954578063c04c22a414610937578063c66e45361461091c578063cdd9a4801461077c578063d527ca7114610711578063d6aaac5d14610541578063d6e0c80d1461053c578063d943af291461051a578063e91f0ed6146102e7578063ea58ec57146102bf578063ef7f0ab6146102a2578063f2fde38b146102775763fe972c8514610258575f80fd5b34610273575f36600319011261027357602060405160148152f35b5f80fd5b34610273576020366003190112610273576102a0610293612484565b61029b612fb4565b612c46565b005b34610273575f366003190112610273576020600b54604051908152f35b34610273575f366003190112610273576009546040516001600160a01b039091168152602090f35b346102735761014036600319011261027357610301612484565b6024356001600160a01b03811690819003610273576044356001600160a01b03811690819003610273576064356001600160a01b0381169290839003610273575f5160206141cf5f395f51905f52549360ff8560401c1615946001600160401b03811680159081610512575b6001149081610508575b1590816104ff575b506104f05767ffffffffffffffff1981166001175f5160206141cf5f395f51905f5255856104c4575b506103b1614163565b6103b9614163565b6103c233612c46565b6103ca614163565b6103d2614163565b60015f5160206141af5f395f51905f525560018060a01b03166001600160601b0360a01b60075416176007556001600160601b0360a01b60085416176008556001600160601b0360a01b60095416176009556001600160601b0360a01b600a541617600a55608435600b5560a435600c5560c435600d5560e435600e5561010435600f556101243560105560ff196011541660115561046d57005b68ff0000000000000000195f5160206141cf5f395f51905f5254165f5160206141cf5f395f51905f52557fc7f505b2f371ae2175ee4913f4499e1f2633a7b5936321eed1cdaeb6115181d2602060405160018152a1005b68ffffffffffffffffff191668010000000000000001175f5160206141cf5f395f51905f5255856103a8565b63f92ee8a960e01b5f5260045ffd5b9050158761037f565b303b159150610377565b87915061036d565b34610273575f36600319011261027357602060ff601154166040519015158152f35b6124d3565b3461027357608036600319011261027357602435604435600435606435610566612fe7565b815f52600160205260405f2093600a850194610583865415612833565b826011600183019260018060a01b03845416331480156106fc575b6105a790612872565b6105b760128201544211156128be565b6105d060078201546105c98a886125e8565b1115612995565b600160028201998a546106e6575b5584600b82015587600c82015501556105f6846131fd565b546001600160a01b03165f908152602081905260409020600401805461061b90612a4c565b90555f5b85548110156106625780610635600192886124ee565b838060a01b0391549060031b1c165f525f602052600460405f200161065a8154612a4c565b90550161061f565b507f95f1d8caeb4d4db0a9ee0045228a11cf1cc4a148ce06a294faa00db432118b8c9293610691818387613836565b60405190602082019283526040820152426060820152826080820152608081526106bc60a082612553565b51902060408051928352426020840152820152606090a260015f5160206141af5f395f51905f5255005b6106f76106f28a6131a5565b612a00565b6105de565b506105a761070a338961301f565b905061059e565b34610273576020366003190112610273576001600160a01b03610732612484565b16803314801561075c575b61074690612b0a565b5f526006602052602060405f2054604051908152f35b505f51602061418f5f395f51905f52546001600160a01b0316331461073d565b346102735760a03660031901126102735760043560243560246044359160643560e060018060a01b036009541660405194858092635ccb761560e11b82528960048301525afa938415610911575f945f945f916108d0575b506107de90612ac8565b336001600160a01b0385161480156108be575b6107fa90612b0a565b855f526001602052610813600360405f20015415612b47565b6108288361082184846125e8565b1115612b8c565b61083183613881565b92600184036108aa5761084387613991565b93604051610852602082612553565b5f81525f368137975b61086f6001600160a01b0387161515612bfa565b606483029183830460641484151715610896576102a0996127108594049760843593613b48565b634e487b7160e01b5f52601160045260245ffd5b6108b681889598613953565b97909461085b565b50336001600160a01b038616146107f1565b90506107de95506108fa91945060e03d60e01161090a575b6108f28183612553565b810190612a6e565b50979492505050959094906107d4565b503d6108e8565b6040513d5f823e3d90fd5b34610273575f36600319011261027357602060405160028152f35b34610273575f366003190112610273576020600f54604051908152f35b346102735760203660031901126102735760043561097a6109753383612eb3565b612b0a565b5f526001602052608060405f206006810154906007810154906009600882015491015491604051938452602084015260408301526060820152f35b34610273576020366003190112610273576001600160a01b036109d6612484565b165f52600360205260405f206040519081602082549182815201915f5260205f20905f5b818110610a2157610a1d85610a1181870382612553565b6040519182918261249a565b0390f35b82548452602090930192600192830192016109fa565b34610273575f366003190112610273576020601054604051908152f35b3461027357604036600319011261027357610a6d612484565b6001600160a01b03165f9081526002602052604090208054602435919082101561027357602091610a9d916124ee565b90549060031b1c604051908152f35b3461027357602036600319011261027357610ac5612484565b610acd612fb4565b6001600160a01b03811615610b035760118054610100600160a81b03191660089290921b610100600160a81b0316919091179055005b60405162461bcd60e51b8152602060048201526024808201527f4f6d6e69436f696e4172626974726174696f6e3a20496e76616c6964206164646044820152637265737360e01b6064820152608490fd5b34610273576020366003190112610273576001600160a01b03610b75612484565b165f525f60205261010060405f206001810154906002810154906003810154600482015460058301549060ff6006850154169260096007860154950154956040519788526020880152604087015260608601526080850152151560a084015260c083015260e0820152f35b34610273575f36600319011261027357602060405160108152f35b34610273575f366003190112610273575f51602061418f5f395f51905f52546040516001600160a01b039091168152602090f35b346102735760c0366003190112610273576004356024356001600160401b0381116102735760406003198236030112610273576044356001600160401b038111610273576040600319823603011261027357606435906001600160401b03821161027357604060031983360301126102735760a4359182151583036102735760249280610fb1575b610cc09061276f565b601154610cda9060081c6001600160a01b031615156127ce565b600954604051635ccb761560e11b8152600481018790529360e09185919082906001600160a01b03165afa938415610911575f945f945f91610f66575b50610d83610d73610d78610d73610d8e95610d34610d7396612ac8565b336001600160a01b038b16148015610f54575b610d5090612b0a565b8b5f526001602052610d69600360405f20015415612b47565b369060040161290a565b61307a565b95369060040161290a565b92369060040161290a565b610db1610dac610da785610da285876130d1565b613106565b612d20565b612b8c565b6001600160401b03610ddb610dc4612e3e565b610dd6610dcf612e03565b918761313b565b613170565b1695600a870296808804600a1490151715610896576011546040516309656ee760e31b81523360048201527f1e4114d10c5a588dbb708962bf1add5a889d02784992dbfde3fb7a2dbc9cfe3d60248201526044810198909852602090889060649082905f9060081c6001600160a01b03165af1801561091157610f19575b6102a09650610e79610e73610e6d86612e78565b94612e78565b92612e78565b92610e8385612e78565b91610e8d82613881565b60018103610efe57610e9e82613991565b96610ef4610eef610ee1604051610eb6602082612553565b5f81525f368137935b610ed36001600160a01b038d161515612bfa565b610edb612e3e565b9061313b565b610ee9612e03565b90613170565b612e78565b9760843593613b48565b610ee1610ef4610eef610f118686613953565b93909a610ebf565b6020873d602011610f4c575b81610f3260209383612553565b8101031261027357610f466102a0976125db565b50610e59565b3d9150610f25565b50336001600160a01b038c1614610d47565b610d349650610d8e929550610d739150610d73610d78610d73610f9a610d839460e03d60e01161090a576108f28183612553565b509d94925050509b909a9650509550505050610d17565b5060115460ff16610cb7565b34610273575f366003190112610273576020600e54604051908152f35b34610273575f36600319011261027357602060405160648152f35b34610273576020366003190112610273576004355f52600160205260405f2060018060a01b036001820154166003820154600483015492600581015460118201546012830154600e84015491600f850154936110586002601088015497016126af565b986110776040519a8b9a8b5261014060208c01526101408b0190612517565b9760408a01526060890152608088015260a087015260c086015260e08501526101008401526101208301520390f35b34610273575f36600319011261027357602060405160018152f35b34610273575f36600319011261027357600a546040516001600160a01b039091168152602090f35b34610273575f36600319011261027357611101612fb4565b5f51602061418f5f395f51905f5280546001600160a01b031981169091555f906001600160a01b03167f8be0079c531659141344cd1fd0a4f28419497f9722a3daafe3b4186f6b6457e08280a3005b34610273575f36600319011261027357602060405160048152f35b34610273575f36600319011261027357602060405169021e19e0c9bab24000008152f35b34610273575f36600319011261027357602060405160468152f35b34610273575f36600319011261027357602060405160038152f35b34610273576020366003190112610273576001600160a01b036111e6612484565b165f525f60205261014060405f2060018060a01b038154169060018101549060028101546003820154600483015460058401549060ff600686015416926007860154946009600888015497015497604051998a5260208a015260408901526060880152608087015260a0860152151560c085015260e0840152610100830152610120820152f35b34610273575f36600319011261027357602060405162093a808152f35b346102735760403660031901126102735760043560243590335f525f60205260ff600660405f200154166117c957600d54811061178457811561172e57600a54604051632f84d3e960e01b81525f91829190602090829060049082906001600160a01b03165afa908115610911575f916116f4575b5015611524575b60075460405163469ee87160e11b81523360048201523060248201526044810185905290602090829060649082905f906001600160a01b03165af1908115610911575f916114ea575b50156114a55760115460ff161561149e5761136b610eef612dca565b915b604051916101408301918383106001600160401b0384111761148a576009926040523384526020840191825260408401908152606084015f8152608085015f815260a0860188815260c08701916001835260e08801934285526101008901958a87526101208a01978d8952335f525f60205260405f209a60018060a01b039060018060a01b03905116166001600160601b0360a01b8c5416178b555160018b01555160028a0155516003890155516004880155516005870155600686019051151560ff8019835416911617905551600785015551600884015551910155335f52600660205260405f205560405191825260208201527f7d76858b233ca6387dcbc452f6d7ace74acdd9358182dcdb2027a5fa21ae3dc660403392a2005b634e487b7160e01b5f52604160045260245ffd5b5f9161136d565b60405162461bcd60e51b815260206004820152601760248201527f5374616b696e67207472616e73666572206661696c65640000000000000000006044820152606490fd5b90506020813d60201161151c575b8161150560209383612553565b8101031261027357611516906125db565b8561134f565b3d91506114f8565b50506008546040516350d061cb60e01b8152336004820152906001600160a01b0316602082602481845afa918215610911575f926116c0575b5060245f839260405192838092637ea7d02d60e11b82523360048301525afa908115610911575f91611628575b508092600b54116115e357600c5411156113065760405162461bcd60e51b815260206004820152601a60248201527f496e73756666696369656e742070617274696369706174696f6e0000000000006044820152606490fd5b60405162461bcd60e51b815260206004820152601760248201527f496e73756666696369656e742072657075746174696f6e0000000000000000006044820152606490fd5b90503d805f833e6116398183612553565b81019060c0818303126102735761164f816125db565b5060408101516001600160401b0381116102735781019180601f840112156102735782519261167d84612574565b9161168b6040519384612553565b8483526020858301011161027357835f9260a09560208094018483015e0101526116b7606082016125db565b5001518561158a565b9091506020813d6020116116ec575b816116dc60209383612553565b810103126102735751908461155d565b3d91506116cf565b90506020813d602011611726575b8161170f60209383612553565b8101031261027357611720906125db565b856112ff565b3d9150611702565b60405162461bcd60e51b815260206004820152602860248201527f4d7573742073706563696679206174206c65617374206f6e65207370656369616044820152673634bd30ba34b7b760c11b6064820152608490fd5b60405162461bcd60e51b815260206004820152601b60248201527f496e73756666696369656e74207374616b696e6720616d6f756e7400000000006044820152606490fd5b60405162461bcd60e51b8152602060048201526012602482015271105b1c9958591e481c9959da5cdd195c995960721b6044820152606490fd5b34610273575f3660031901126102735760115460405160089190911c6001600160a01b03168152602090f35b346102735760a0366003190112610273576024356004356001600160401b0382116102735760406003198336030112610273576044356001600160401b03811161027357604060031982360301126102735760643590608435801515810361027357611899612fe7565b80611c47575b6118a89061276f565b6011546118c29060081c6001600160a01b031615156127ce565b825f52600160205260405f2093600a85016118e96118e3610da78354612cb7565b15612833565b611931610d73611926610d7360018a019560018060a01b0387541633148015611c32575b61191690612872565b610d6960128c01544211156128be565b94369060040161290a565b9261193c84826130d1565b61195d611958610da761195260078c0154612d8f565b84613106565b612995565b6040516306cdb05b60e51b8152600160fa1b6004820152603260248201526020816044815f60645af1908115610911575f91611bf9575b506001600160401b03916119b491610dd6906119ae612e03565b9261313b565b16600a810290808204600a1490151715610896576011546040516309656ee760e31b81523360048201527f7ad4efdf422c670fcb3e663e94a69cfff74e4e7bb9a64804265c845cf4d2ca7d60248201526044810192909252602090829060649082905f9060081c6001600160a01b03165af1801561091157611bb8575b50611a3e611a4491612e78565b93612e78565b9160028701908154611ba7575b6040516306cdb05b60e51b81525f6004820181905260016024830181905299906020908390604490829060645af1948515610911578a9589935f91611b69575b506011939495965080611aa491506131c3565b905586600b82015585600c8201550155611abd866131fd565b546001600160a01b03165f9081526020819052604090206004018054611ae290612a4c565b90555f865b611b1d575b505083945061069181837f95f1d8caeb4d4db0a9ee0045228a11cf1cc4a148ce06a294faa00db432118b8c96613836565b8154811015611b6457908682611b348294846124ee565b60018060a01b0391549060031b1c165f525f602052600460405f2001611b5a8154612a4c565b9055019091611ae7565b611aec565b9296505091506020813d602011611b9f575b81611b8860209383612553565b810103126102735751899488929091611aa4611a91565b3d9150611b7b565b611bb36106f2886131a5565b611a51565b6020813d602011611bf1575b81611bd160209383612553565b8101031261027357611a4491611be9611a3e926125db565b509150611a31565b3d9150611bc4565b90506020813d602011611c2a575b81611c1460209383612553565b8101031261027357516001600160401b03611994565b3d9150611c07565b50611916611c40338c61301f565b905061190d565b5060115460ff1661189f565b34610273575f366003190112610273576020604051818152f35b34610273575f366003190112610273576008546040516001600160a01b039091168152602090f35b3461027357604036600319011261027357611cae612484565b6001600160a01b03165f9081526003602052604090208054602435919082101561027357602091610a9d916124ee565b346102735760203660031901126102735760043580151580910361027357611d04612fb4565b60ff8019601154169116176011555f80f35b34610273575f366003190112610273576020604051683635c9adc5dea000008152f35b34610273576020366003190112610273576001600160a01b03611d5a612484565b165f52600260205260405f206040519081602082549182815201915f5260205f20905f5b818110611d9557610a1d85610a1181870382612553565b8254845260209093019260019283019201611d7e565b346102735760403660031901126102735760243560043560018210158061201c575b15611fe257611ddc3382612eb3565b15611fa457805f52600160205260405f209060ff601154165f14611f8f57611e12611e0d610da7600a850154612cb7565b61266c565b805f526004602052611e2660405f206126af565b6001600160a01b03611e3782612702565b5116906001600160a01b0390611e4c9061270f565b5116903303611f2e575082600e8301611e66815415612733565b555b600e82015480151580611f21575b611eab575b83826040519182527fea6a5e6b5b889b6ab1dad83908423c7375952845d0faedc98d31ad40dfa5164160203393a3005b611ebc90600f8493940154906125e8565b60011c92836010830155611edc8460018060a01b03600185015416612f0c565b60025f9201915b8254811015611f165780611f1086611efd600194876124ee565b858060a01b0391549060031b1c16612f0c565b01611ee3565b509250508083611e7b565b50600f8301541515611e76565b3303611f4a5782600f8301611f44815415612733565b55611e68565b60405162461bcd60e51b815260206004820152601e60248201527f4f6e6c7920627579657220616e642073656c6c65722063616e207261746500006044820152606490fd5b611f9f6001600a8401541461266c565b611e12565b60405162461bcd60e51b81526020600482015260166024820152754e6f7420617574686f72697a656420746f207261746560501b6044820152606490fd5b60405162461bcd60e51b8152602060048201526012602482015271526174696e67206d75737420626520312d3560701b6044820152606490fd5b506005821115611dcd565b34610273575f36600319011261027357335f525f60205261205160ff600660405f2001541661258f565b335f525f602052600860405f20015460ff601154165f1461216f57602061207782612d8f565b61207f612dca565b6040516336c1722f60e11b815261010160f21b60048201526024810192909252604482018190529091826064815f825af1918215610911575f92612139575b50610eef6120ce6120d393612d20565b612629565b335f525f602052600860405f2001555b6040516020810191825233604082015242606082015260608152612108608082612553565b5190206040519081527f642c1e3b4a7a226825acfa8e9e18b76600acdf727667cadb46551316da97672f60203392a2005b91506020823d602011612167575b8161215460209383612553565b8101031261027357905190610eef6120be565b3d9150612147565b61217a811515612629565b335f525f6020525f60086040822001556120e3565b34610273575f366003190112610273576020600d54604051908152f35b346102735760203660031901126102735760206121ca6004356125f5565b6040519015158152f35b34610273575f366003190112610273576007546040516001600160a01b039091168152602090f35b34610273575f36600319011261027357602060405160088152f35b3461027357602036600319011261027357600435335f525f60205261224560ff600660405f2001541661258f565b801561237c5760075460405163469ee87160e11b81523360048201523060248201526044810183905290602090829060649082905f906001600160a01b03165af1908115610911575f91612342575b50156122f257335f525f6020526122b3600560405f20019182546125e8565b9055335f525f602052600560405f2001546040519081527f2ddf7b62866b5885e911e95cb3b511a920c3f1eba8b443634d493c6cf2a93db960203392a2005b60405162461bcd60e51b815260206004820152602260248201527f4164646974696f6e616c207374616b696e67207472616e73666572206661696c604482015261195960f21b6064820152608490fd5b90506020813d602011612374575b8161235d60209383612553565b810103126102735761236e906125db565b82612294565b3d9150612350565b60405162461bcd60e51b815260206004820152601c60248201527f4d757374207374616b65206164646974696f6e616c20616d6f756e74000000006044820152606490fd5b34610273575f36600319011261027357610a1d6040516123e2606082612553565b603881527f4f6d6e69436f696e4172626974726174696f6e2076322e302e30202d20434f5460208201527f49205632205072697661637920496e746567726174696f6e00000000000000006040820152604051918291602083526020830190612460565b34610273575f36600319011261027357602090600c548152f35b805180835260209291819084018484015e5f828201840152601f01601f1916010190565b600435906001600160a01b038216820361027357565b60206040818301928281528451809452019201905f5b8181106124bd5750505090565b82518452602093840193909201916001016124b0565b34610273575f366003190112610273576020604051600a8152f35b8054821015612503575f5260205f2001905f90565b634e487b7160e01b5f52603260045260245ffd5b90602080835192838152019201905f5b8181106125345750505090565b82516001600160a01b0316845260209384019390920191600101612527565b90601f801991011681019081106001600160401b0382111761148a57604052565b6001600160401b03811161148a57601f01601f191660200190565b1561259657565b60405162461bcd60e51b815260206004820152601860248201527f4e6f7420616e206163746976652061726269747261746f7200000000000000006044820152606490fd5b5190811515820361027357565b9190820180921161089657565b5f52600160205260405f2060ff601154165f1461261f57610da7600a61261c920154612cb7565b90565b600a015460011490565b1561263057565b60405162461bcd60e51b81526020600482015260146024820152734e6f206561726e696e677320746f20636c61696d60601b6044820152606490fd5b1561267357565b60405162461bcd60e51b8152602060048201526014602482015273111a5cdc1d5d19481b9bdd081c995cdbdb1d995960621b6044820152606490fd5b90604051918281549182825260208201905f5260205f20925f5b8181106126e05750506126de92500383612553565b565b84546001600160a01b03168352600194850194879450602090930192016126c9565b8051156125035760200190565b8051600110156125035760400190565b80518210156125035760209160051b010190565b1561273a57565b60405162461bcd60e51b815260206004820152600d60248201526c105b1c9958591e481c985d1959609a1b6044820152606490fd5b1561277657565b60405162461bcd60e51b815260206004820152602a60248201527f4f6d6e69436f696e4172626974726174696f6e3a2050726976616379206e6f7460448201526920617661696c61626c6560b01b6064820152608490fd5b156127d557565b60405162461bcd60e51b815260206004820152603060248201527f4f6d6e69436f696e4172626974726174696f6e3a20507269766163792066656560448201526f081b585b9859d95c881b9bdd081cd95d60821b6064820152608490fd5b1561283a57565b60405162461bcd60e51b815260206004820152601060248201526f105b1c9958591e481c995cdbdb1d995960821b6044820152606490fd5b1561287957565b60405162461bcd60e51b815260206004820152601960248201527f4e6f7420617574686f72697a65642061726269747261746f72000000000000006044820152606490fd5b156128c557565b60405162461bcd60e51b815260206004820152601a60248201527f5265736f6c7574696f6e20646561646c696e65207061737365640000000000006044820152606490fd5b919060408382031261027357604051604081018181106001600160401b0382111761148a576040528093803582526020810135906001600160401b03821161027357019082601f8301121561027357813561296481612574565b936129726040519586612553565b81855260208285010111610273576020815f928280960183880137850101520152565b1561299c57565b60405162461bcd60e51b815260206004820152602360248201527f546f74616c207061796f7574732065786365656420657363726f772062616c616044820152626e636560e81b6064820152608490fd5b8181029291811591840414171561089657565b15612a0757565b60405162461bcd60e51b815260206004820152601860248201527f50616e656c20636f6e73656e73757320726571756972656400000000000000006044820152606490fd5b5f1981146108965760010190565b51906001600160a01b038216820361027357565b908160e091031261027357612a8281612a5a565b91612a8f60208301612a5a565b91612a9c60408201612a5a565b91606082015191612aaf608082016125db565b9161261c60c0612ac160a085016125db565b93016125db565b15612acf57565b60405162461bcd60e51b8152602060048201526013602482015272115cd8dc9bddc81b9bdd08191a5cdc1d5d1959606a1b6044820152606490fd5b15612b1157565b60405162461bcd60e51b815260206004820152600e60248201526d139bdd08185d5d1a1bdc9a5e995960921b6044820152606490fd5b15612b4e57565b60405162461bcd60e51b81526020600482015260166024820152754469737075746520616c72656164792065786973747360501b6044820152606490fd5b15612b9357565b60405162461bcd60e51b815260206004820152602260248201527f546f74616c20636c61696d732065786365656420657363726f772062616c616e604482015261636560f01b6064820152608490fd5b6001600160401b03811161148a5760051b60200190565b15612c0157565b60405162461bcd60e51b815260206004820152601c60248201527f4e6f207375697461626c652061726269747261746f7220666f756e64000000006044820152606490fd5b6001600160a01b03168015612ca4575f51602061418f5f395f51905f5280546001600160a01b0319811683179091556001600160a01b03167f8be0079c531659141344cd1fd0a4f28419497f9722a3daafe3b4186f6b6457e05f80a3565b631e4fbdf760e01b5f525f60045260245ffd5b602060405180809363d2c135e560e01b825260048201908460408301925f8152015203815f60645af1908115610911575f91612cf1575090565b90506020813d602011612d18575b81612d0c60209383612553565b81010312610273575190565b3d9150612cff565b6020604051808093630cfed56160e01b825260048201908460408301925f8152015203815f60645af1908115610911575f91612d5d575b50151590565b90506020813d602011612d87575b81612d7860209383612553565b8101031261027357515f612d57565b3d9150612d6b565b60405163d2c135e560e01b8152600160fa1b600482015260248101919091526020816044815f60645af1908115610911575f91612cf1575090565b6040516306cdb05b60e51b8152600160fa1b60048201525f60248201526020816044815f60645af1908115610911575f91612cf1575090565b6040516306cdb05b60e51b8152600160fa1b600482015261271060248201526020816044815f60645af1908115610911575f91612cf1575090565b6040516306cdb05b60e51b8152600160fa1b6004820152606460248201526020816044815f60645af1908115610911575f91612cf1575090565b6040516362864e0160e11b8152600160fa1b600482015260248101919091526020816044815f60645af1908115610911575f91612cf1575090565b5f526004602052612ec660405f206126af565b905f5b8251811015612f05576001600160a01b03612ee4828561271f565b51166001600160a01b03831614612efd57600101612ec9565b505050600190565b5050505f90565b6001600160a01b03165f81815260208190526040902090915f1981019190821161089657601482029180830460141490151715610896576014820180921161089657600101805490601054806064039260648411610896577ffc577563f1b9a0461e24abef1e1fcc0d33d3d881f20b5df6dda59de4aae2c82194612fa1606493612f9b602097612fa7956129ed565b926129ed565b906125e8565b04809155604051908152a2565b5f51602061418f5f395f51905f52546001600160a01b03163303612fd457565b63118cdaa760e01b5f523360045260245ffd5b60025f5160206141af5f395f51905f5254146130105760025f5160206141af5f395f51905f5255565b633ee5aeb560e01b5f5260045ffd5b5f52600160205260405f209060025f92018054925b83811061304357505050505f90565b61304d81836124ee565b905460039190911b1c6001600160a01b039081169084161461307157600101613034565b50505050600190565b60206130b991818151910151906040519384928392630e4f36e160e41b8452600160fa1b60048501526024840152606060448401526064830190612460565b03815f60645af1908115610911575f91612cf1575090565b6040516308c5d01560e41b815261010160f21b60048201526024810191909152604481019190915260208180606481016130b9565b604051630517f28b60e21b815261010160f21b60048201526024810191909152604481019190915260208180606481016130b9565b604051633c7486ed60e21b815261010160f21b60048201526024810191909152604481019190915260208180606481016130b9565b604051634e9ba4b560e01b815261010160f21b60048201526024810191909152604481019190915260208180606481016130b9565b5f526001602052600260405f200154156131be57600190565b600190565b60206040518080936362864e0160e11b825260048201908460408301925f8152015203815f60645af1908115610911575f91612cf1575090565b805f52600160205260405f2060ff60115416156137c757600d8101549061322382612d8f565b9061322c612e3e565b6040516306cdb05b60e51b8152600160fa1b6004820152604660248201529091906020816044815f60645af19081156109115783905f92613791575b5061327791610dd6908661313b565b61328081612e78565b6040516306cdb05b60e51b8152600160fa1b6004820152601460248201529094906020816044815f60645af180156109115785915f9161375a575b506132ce91610eef91610dd6908561313b565b6040516306cdb05b60e51b8152600160fa1b6004820152600a6024820152909490916020836044815f60645af1928315610911575f93613722575b5090610dd683610eef9361331d955061313b565b91600281018054155f146134195750917f6b6279b6aa07177ecc73685137cd95eaf21418bed8410b694295775ee85926869593916133be610eef600160209896019260018060a01b038454165f525f895261338a610eef82613385600860405f200154612d8f565b6130d1565b60018060a01b038554165f525f8a52600860405f20015560018060a01b038454165f526006895261338560405f2054612d8f565b90546001600160a01b03165f9081526006875260409020555b60405191858301938452604083015260608201524260808201526080815261340060a082612553565b51902090845f526005835260405f2055604051908152a2565b9592969390979491604051906306cdb05b60e51b8252600160fa1b6004830152600260248301526020826044815f60645af1918215610911575f926136ec575b506020916134679082613170565b91829161347383612e78565b50604051631b8e8df960e11b815261010160f21b600482015260248101919091526044810192909252816064815f825af1908115610911575f916136ba575b5087546040516306cdb05b60e51b8152600160fa1b60048201526001600160401b0390911660248201526020816044815f60645af1908115610911575f91613687575b50600161350a8261357494610eef9450613170565b9b6135148d612e78565b50019260018060a01b038454165f525f60205261353e610eef82613385600860405f200154612d8f565b60018060a01b038554165f525f602052600860405f20015560018060a01b038454165f52600660205261338560405f2054612d8f565b90546001600160a01b03165f908152600660205260408120919091555b865481101561365557806135a7600192896124ee565b838060a01b0391549060031b1c165f525f6020526135d2610eef8b613385600860405f200154612d8f565b6135dc828a6124ee565b848060a01b0391549060031b1c165f525f602052600860405f20015561360281896124ee565b838060a01b0391549060031b1c165f52600660205261362b610eef8b61338560405f2054612d8f565b613635828a6124ee565b848060a01b0391549060031b1c165f52600660205260405f205501613591565b509091929560209497507f6b6279b6aa07177ecc73685137cd95eaf21418bed8410b694295775ee859268695506133d7565b90506020813d6020116136b2575b816136a260209383612553565b81010312610273575160016134f5565b3d9150613695565b90506020813d6020116136e4575b816136d560209383612553565b8101031261027357515f6134b2565b3d91506136c8565b91506020823d60201161371a575b8161370760209383612553565b8101031261027357905190613467613459565b3d91506136fa565b9250906020833d602011613752575b8161373e60209383612553565b810103126102735791519190610dd6613309565b3d9150613731565b9150506020813d602011613789575b8161377660209383612553565b81010312610273575184906132ce6132bb565b3d9150613769565b9150506020813d6020116137bf575b816137ad60209383612553565b81010312610273575182610dd6613268565b3d91506137a0565b507f6b6279b6aa07177ecc73685137cd95eaf21418bed8410b694295775ee859268660206040518181019082825260166040820152753a32b9ba2fb6b7b232afb234b9ba3934b13aba34b7b760511b60608201526060815261382a608082612553565b519020604051908152a2565b906126de926080925f52600460205261386361385460405f206126af565b61385d81612702565b5061270f565b50604051916020830152604082015242606082015260608152612553565b60115460ff161561393e5761389590612d8f565b6040516306cdb05b60e51b8152600160fa1b60048201526103e86024820152906020826044815f60645af1918215610911575f9261390a575b506138e4610da76138dd612e03565b938361412e565b613903576138f591610da79161412e565b6138fe57600290565b600290565b5050600190565b9091506020813d602011613936575b8161392660209383612553565b810103126102735751905f6138ce565b3d9150613919565b683635c9adc5dea0000011156138fe57600190565b61395d9150613991565b9060405191606061396e8185612553565b60028452601f19013660208501379190565b9060038110156125035760051b0190565b600954604051635ccb761560e11b8152600481019290925260e090829060249082906001600160a01b03165afa908115610911575f905f92613aed575b5060405190606082018281106001600160401b0382111761148a576040527370997970c51812dc3a010c7d01b50e0d17dc79c88252733c44cdddb6a900fa2b585dd299e03d12fa4293bc60208301527390f79bf6eb2c4f870365e785982e1f101e93b90660408301525f5b60038110613a4957505050505f90565b6001600160a01b03613a5b8285613980565b51165f525f60205260ff600660405f2001541680613ac7575b80613aa1575b613a8657600101613a39565b6001600160a01b039350613a9c92909150613980565b511690565b506001600160a01b03613ab48285613980565b51166001600160a01b0385161415613a7a565b506001600160a01b03613ada8285613980565b51166001600160a01b0383161415613a74565b9050613b08915060e03d60e01161090a576108f28183612553565b5050505050905f6139ce565b8054600160401b81101561148a57613b31916001820181556124ee565b819291549060031b91821b915f19901b1916179055565b98929591999a9b969094939760ff601154165f14614127576040516306cdb05b60e51b81525f60048201819052602482018190526020908290604490829060645af18015610911575f906140f3575b613ba191506131c3565b905b60115460ff16156140ec57613bb9610eef612dca565b925b60115460ff16156140e557613bd1610eef612dca565b945b62093a8042014211610896576040519761026089018981106001600160401b0382111761148a578f908f906040528a5260018060a01b038b1660208b015260408a01524260608a01528a60808a01528c60a08a015260c089015260e08801526101008701526101208601526101408501526101608401526101808301526101a08201525f6101c08201525f6101e08201525f6102008201525f61022082015262093a804201610240820152855f52600160205260405f20908051825560018060a01b03602082015116600183019060018060a01b03166001600160601b0360a01b82541617905560408101518051906001600160401b03821161148a57600160401b821161148a5760028401548260028601558083106140bc575b50602001600284015f5260205f205f5b83811061409f5750505050610240816060601293015160038501556080810151600485015560a0810151600585015560c0810151600685015560e0810151600785015561010081015160088501556101208101516009850155610140810151600a850155610160810151600b850155610180810151600c8501556101a0810151600d8501556101c0810151600e8501556101e0810151600f8501556102008101516010850155610220810151601185015501519101558551976003890180991161089657613de4613dce8a612be3565b99613ddc6040519b8c612553565b808b52612be3565b60208a019890601f1901368a37613dfa8a612702565b6001600160a01b0390911690819052613e128a61270f565b6001600160a01b0390921691829052895160021015612503576001600160a01b03831660608b01525f5b8851811015613e7a576001600160a01b03613e57828b61271f565b51169080600301918260031161089657613e736001938e61271f565b5201613e3c565b50919395989790929497895f52600460205260405f209051916001600160401b03831161148a57600160401b831161148a578154838355808410614079575b50905f5260205f205f5b83811061405c575050505060018060a01b0383165f526002602052613eeb8860405f20613b14565b5f526003602052613eff8760405f20613b14565b5f526003602052613f138660405f20613b14565b60018060a01b0381165f525f602052600360405f2001613f338154612a4c565b905560018060a01b0381165f525f60205242600760405f2001555f5b8451811015613fd5576001906001600160a01b03613f6d828861271f565b51165f526002602052613f838860405f20613b14565b818060a01b03613f93828861271f565b51165f525f602052600360405f2001613fac8154612a4c565b9055818060a01b03613fbe828861271f565b51165f525f60205242600760405f20015501613f4f565b5060407f7f3934e515576bb79c6078ee47acf33384f8f957157df117ca39d2384e3c6f63918796979394978251958652602086015260018060a01b031693a3805161401e575050565b6140577f269edb6bdabd6e32f76faf0ab2f768fd25444a0f7dbd3004a920b07d28fe7b3491604051918291602083526020830190612517565b0390a2565b82516001600160a01b031681830155602090920191600101613ec3565b825f528360205f2091820191015b8181106140945750613eb9565b5f8155600101614087565b82516001600160a01b031681830155602090920191600101613cfe565b600285015f528260205f2091820191015b8181106140da5750613cee565b5f81556001016140cd565b5f94613bd3565b5f92613bbb565b506020813d60201161411f575b8161410d60209383612553565b8101031261027357613ba19051613b97565b3d9150614100565b5f90613ba3565b60405163dd14869360e01b815261010160f21b60048201526024810191909152604481019190915260208180606481016130b9565b60ff5f5160206141cf5f395f51905f525460401c161561417f57565b631afcd79f60e31b5f5260045ffdfe9016d09d72d40fdae2fd8ceac6b6234c7706214fd39c1cd1e609a0528c1993009b779b17422d0df92223018b32b4d1fa46e071723d6817e2486d003becc55f00f0c57e16840df040f15088dc2f81fe391c3923bec73e23a9662efc9c229c6a00a26469706673582212208e626a671d8edec59d47bfc7a237140bc5a2ae0787791609efc82717e0d7f35264736f6c634300081e0033f0c57e16840df040f15088dc2f81fe391c3923bec73e23a9662efc9c229c6a00",
    "sourcePath": "c:/Users/rickc/OmniBazaar/Coin/contracts/OmniCoinArbitration.sol",
    "compiler": {
        "name": "solc",
        "version": "0.8.30+commit.73712a01"
    },
    "functionHashes": {
        "ARBITRATION_FEE_RATE()": "7e03649f",
        "ARBITRATOR_FEE_SHARE()": "5cfbb51c",
        "COMPLEX_DISPUTE_THRESHOLD()": "65c8a687",
        "PANEL_SIZE()": "53dd2687",
        "PRIVACY_MULTIPLIER()": "3c95012d",
        "RESOLUTION_PERIOD()": "50f90594",
        "SIMPLE_DISPUTE_THRESHOLD()": "3c92996e",
        "SPEC_DIGITAL_GOODS()": "79615381",
        "SPEC_HIGH_VALUE()": "124abd1f",
        "SPEC_INTERNATIONAL()": "9799988c",
        "SPEC_PHYSICAL_GOODS()": "c66e4536",
        "SPEC_SERVICES()": "6616433e",
        "SPEC_TECHNICAL()": "3f779056",
        "TREASURY_FEE_SHARE()": "fe972c85",
        "VALIDATOR_FEE_SHARE()": "d6e0c80d",
        "arbitratorDisputes(address,uint256)": "a46fb425",
        "arbitrators(address)": "51d0ea37",
        "claimArbitratorEarnings()": "2c1cfb18",
        "config()": "79502c55",
        "createDispute(bytes32,uint256,uint256,uint256,bytes32)": "cdd9a480",
        "createDisputeWithPrivacy(bytes32,(uint256,bytes),(uint256,bytes),(uint256,bytes),bytes32,bool)": "8b37f292",
        "disputeTimeout()": "c04c22a4",
        "getArbitratorDisputes(address)": "3172262c",
        "getArbitratorInfo(address)": "99056c3c",
        "getArbitratorPrivateEarnings(address)": "d527ca71",
        "getDisputePrivateAmounts(bytes32)": "c02b27b4",
        "getDisputePublicInfo(bytes32)": "7dbc1e8e",
        "getUserDisputes(address)": "bfb0a55b",
        "getVersion()": "0d8e6e2c",
        "increaseArbitratorStake(uint256)": "0f6aaff7",
        "initialize(address,address,address,address,uint256,uint256,uint256,uint256,uint256,uint256)": "e91f0ed6",
        "isDisputeResolved(bytes32)": "23c0d472",
        "isMpcAvailable()": "d943af29",
        "maxActiveDisputes()": "874acf31",
        "minParticipationIndex()": "04a8dd74",
        "minReputation()": "ef7f0ab6",
        "minStakingAmount()": "25c065b1",
        "omniCoin()": "1e9a2680",
        "omniCoinAccount()": "3eac6788",
        "omniCoinEscrow()": "ea58ec57",
        "owner()": "8da5cb5b",
        "privacyFeeManager()": "45d9647b",
        "ratingWeight()": "b4edb46f",
        "registerArbitrator(uint256,uint256)": "4b1f7812",
        "renounceOwnership()": "715018a6",
        "resolveDispute(bytes32,uint256,uint256,bytes32)": "d6aaac5d",
        "resolveDisputeWithPrivacy(bytes32,(uint256,bytes),(uint256,bytes),bytes32,bool)": "4592e007",
        "setMpcAvailability(bool)": "3d08fe2d",
        "setPrivacyFeeManager(address)": "a405240e",
        "submitRating(bytes32,uint256)": "2e43dd02",
        "transferOwnership(address)": "f2fde38b",
        "userDisputes(address,uint256)": "3dc04159"
    },
    "gasEstimates": {
        "creation": {
            "codeDepositCost": "3386400",
            "executionCost": "infinite",
            "totalCost": "infinite"
        },
        "external": {
            "ARBITRATION_FEE_RATE()": "791",
            "ARBITRATOR_FEE_SHARE()": "637",
            "COMPLEX_DISPUTE_THRESHOLD()": "659",
            "PANEL_SIZE()": "615",
            "PRIVACY_MULTIPLIER()": "407",
            "RESOLUTION_PERIOD()": "571",
            "SIMPLE_DISPUTE_THRESHOLD()": "373",
            "SPEC_DIGITAL_GOODS()": "747",
            "SPEC_HIGH_VALUE()": "219",
            "SPEC_INTERNATIONAL()": "879",
            "SPEC_PHYSICAL_GOODS()": "1055",
            "SPEC_SERVICES()": "681",
            "SPEC_TECHNICAL()": "483",
            "TREASURY_FEE_SHARE()": "1272",
            "VALIDATOR_FEE_SHARE()": "1155",
            "arbitratorDisputes(address,uint256)": "7569",
            "arbitrators(address)": "22012",
            "claimArbitratorEarnings()": "infinite",
            "config()": "2852",
            "createDispute(bytes32,uint256,uint256,uint256,bytes32)": "infinite",
            "createDisputeWithPrivacy(bytes32,(uint256,bytes),(uint256,bytes),(uint256,bytes),bytes32,bool)": "infinite",
            "disputeTimeout()": "3136",
            "getArbitratorDisputes(address)": "infinite",
            "getArbitratorInfo(address)": "18057",
            "getArbitratorPrivateEarnings(address)": "infinite",
            "getDisputePrivateAmounts(bytes32)": "infinite",
            "getDisputePublicInfo(bytes32)": "infinite",
            "getUserDisputes(address)": "infinite",
            "getVersion()": "496",
            "increaseArbitratorStake(uint256)": "infinite",
            "initialize(address,address,address,address,uint256,uint256,uint256,uint256,uint256,uint256)": "infinite",
            "isDisputeResolved(bytes32)": "infinite",
            "isMpcAvailable()": "3280",
            "maxActiveDisputes()": "2916",
            "minParticipationIndex()": "2248",
            "minReputation()": "3334",
            "minStakingAmount()": "2388",
            "omniCoin()": "2368",
            "omniCoinAccount()": "2588",
            "omniCoinEscrow()": "3336",
            "owner()": "infinite",
            "privacyFeeManager()": "2663",
            "ratingWeight()": "3070",
            "registerArbitrator(uint256,uint256)": "infinite",
            "renounceOwnership()": "28668",
            "resolveDispute(bytes32,uint256,uint256,bytes32)": "infinite",
            "resolveDisputeWithPrivacy(bytes32,(uint256,bytes),(uint256,bytes),bytes32,bool)": "infinite",
            "setMpcAvailability(bool)": "26855",
            "setPrivacyFeeManager(address)": "infinite",
            "submitRating(bytes32,uint256)": "infinite",
            "transferOwnership(address)": "29353",
            "userDisputes(address,uint256)": "7063"
        },
        "internal": {
            "_calculateParticipationIndex(address)": "infinite",
            "_createDisputeInternal(bytes32,address,address[] memory,uint256,bytes32,ctUint64,ctUint64,ctUint64,ctUint64,ctUint64,address,address)": "infinite",
            "_determineDisputeType(ctUint64)": "infinite",
            "_distributeArbitrationFees(bytes32)": "infinite",
            "_executePrivatePayouts(bytes32,ctUint64,ctUint64)": "infinite",
            "_isDisputeParticipant(bytes32,address)": "infinite",
            "_isPanelArbitrator(bytes32,address)": "infinite",
            "_selectArbitrationPanel(bytes32,ctUint64)": "infinite",
            "_selectSingleArbitrator(bytes32,ctUint64)": "infinite",
            "_updateArbitratorReputation(address,uint256)": "infinite",
            "_verifyPanelConsensus(bytes32,ctUint64,ctUint64)": "infinite"
        }
    }
}